:100000000C9434000C943E000C943E000C943E0082
:100010000C943E000C943E000C943E000C943E0068
:100020000C943E000C943E000C943E000C943E0058
:100030000C943E000C943E000C943E000C943E0048
:100040000C943E000C943E000C943E000C943E0038
:100050000C943E000C943E000C943E000C943E0028
:100060000C943E000C943E0011241FBECFEFD8E04C
:10007000DEBFCDBF0E94F0000C9402010C94000082
:10008000EAE7F0E0808180688083808187608083F8
:10009000ECE7F0E08081806C8083808185608083E4
:1000A00087B187B988B18FEF88B9089584B18FEF90
:1000B00084B90895DC018D919C9111978137910548
:1000C00064F485B190E2892785B98FEF90E7A2E0CB
:1000D00081509040A040E1F76EC0823E910564F4EB
:1000E00085B190E2892785B98FEF92E5A7E081502D
:1000F0009040A040E1F75FC0A1E083359A0764F427
:1001000085B190E2892785B98FEF94E3ACE0815007
:100110009040A040E1F74FC0A1E0843C9A0764F40E
:1001200085B190E2892785B98FEF96E1A1E18150F1
:100130009040A040E1F73FC0A2E085339A0764F405
:1001400085B190E2892785B98FEF9AEDAAE18150B8
:100150009040A040E1F72FC0A2E0863A9A0764F4ED
:1001600085B190E2892785B98FEF9CEBAFE1815093
:100170009040A040E1F71FC0A3E087319A0764F4E4
:1001800085B190E2892785B98FEF9EE9A4E281507D
:100190009040A040E1F70FC0A3E088389A0774F4BC
:1001A00085B190E2892785B98FEF90E8A9E2815067
:1001B0009040A040E1F700C000000895A3E08A3815
:1001C0009A076CF085B190E2892785B98FEF92E6A6
:1001D000AEE281509040A040E1F700C000000895D9
:1001E0000E9440000E94560080917A0080648093B3
:1001F0007A0080917A0086FDFCCF88E790E00E942B
:080200005A00F2CFF894FFCF81
:00000001FF
