:100000000C9481000C94A2000C94A2000C94A20009
:100010000C94A2000C94A2000C94A2000C94A200D8
:100020000C94A2000C94A2000C94A2000C94A200C8
:100030000C94A2000C94A2000C94A2000C94A200B8
:100040000C94A2000C94A2000C94A2000C94A200A8
:100050000C94A2000C94A2000C94A2000C94A20098
:100060000C94A2000C94A2000C94A2000C94A20088
:100070000C94A2000C94A2000C94A2000C94A20078
:100080000C94A2000C94A2000C94A2000C94A20068
:100090000C94A2000C94A2000C94A2000C94A20058
:1000A0000C94A2000C94A2000C94A2000C94A20048
:1000B0000C94A2000C94A2000C94A2000C94A20038
:1000C0000C94A2000C94A2000C94A2000C94A20028
:1000D0000C94A2000C94A2000C94A2000C94A20018
:1000E0000C94A20005A84CCDB2D44EB93836A90262
:1000F0000C50B9918688083CA6AAAA2ABE00000026
:10010000803F11241FBECFEFD1E2DEBFCDBF00E0A4
:100110000CBF12E0A8E0B2E001C01D92A031B1070F
:10012000E1F712E0A0E0B2E0E4EBFFE000E00BBF9B
:1001300002C007900D92A830B107D9F70E94A40021
:100140000C94D8070C940000AF92BF92CF92DF922C
:10015000EF92FF920F931F938FEF81B9DD24DA9412
:1001600027EEC22E93ECB92E81E8A82E60910802EA
:100170007091090280910A0290910B020E9443063D
:1001800020E030E040E051E40E94220320E030E033
:1001900040E051E40E94C4027B018C01862F9F2D18
:1001A000A02FB12F80930C0290930D02A0930E020A
:1001B000B0930F026E2D7F2D802F912F20E030E025
:1001C000A9010E941C04181674F46E2D7F2D802F37
:1001D000912F2AE939E949E95EE30E944C0487FF3F
:1001E00002C012B867C06E2D7F2D802F912F2AE993
:1001F00039E949E95EE30E941C04181674F46E2D77
:100200007F2D802F912F20E030E040E85FE30E94B7
:100210004C0487FF02C0A2B84DC06E2D7F2D802FE9
:10022000912F20E030E040E85FE30E941C041816A4
:1002300074F46E2D7F2D802F912F20E030E040E070
:1002400050E40E944C0487FF02C0B2B833C06E2D48
:100250007F2D802F912F20E030E040E050E40E947D
:100260001C04181674F46E2D7F2D802F912F20E022
:1002700030E040E450E40E944C0487FF02C0C2B862
:1002800019C06E2D7F2D802F912F26E636E646E48D
:1002900050E40E941C041816B4F46E2D7F2D802F9C
:1002A000912F20E030E040E850E40E944C0487FFAA
:1002B0000AC0D2B88FEF90E7A2E081509040A040F2
:1002C000E1F700C00000609108027091090280917E
:1002D0000A0290910B022DEC3CEC4CEC5DE30E9489
:1002E000C402609308027093090280930A029093FB
:1002F0000B023CCFA0E0B0E0E0E8F1E00C94100687
:10030000FC01EA018081823008F438C1DB019C9154
:10031000923008F430C1843059F4943009F02EC181
:10032000918111968C911197981709F021C126C1DE
:10033000943009F420C19230B1F4823009F01EC12A
:10034000CA01AF0128E0DA010D90AD01DC010D9288
:10035000CD012150C1F7DB0111968C91119791814C
:10036000892389830AC1823009F405C1C280D38000
:10037000DB0112966D907C90139724813581468124
:1003800057811496ED90FD900D911C911797C60121
:10039000861997095C0197FF04C0AA24BB24A81AF8
:1003A000B90AB0E2AB16B1040CF061C01816190618
:1003B0006CF5370148010A2C04C096948794779411
:1003C00067940A94D2F781E090E0A0E0B0E00A2CB4
:1003D00004C0880F991FAA1FBB1F0A94D2F7019768
:1003E000A109B1098E219F21A023B123EE24FF246E
:1003F0008701E3940097A105B10519F4EE24FF24C9
:100400008701E628F728082919293CC00097D1F16F
:10041000CA0CDB1C39014A010A2C04C0969487944B
:10042000779467940A94D2F781E090E0A0E0B0E07E
:100430000A2C04C0880F991FAA1FBB1F0A94D2F769
:100440000197A109B10982239323A423B52321E0B5
:1004500030E040E050E00097A105B10519F420E03C
:1004600030E0A90126293729482959290BC06C14E5
:100470007D0424F4EE24FF24870104C0630120E0FE
:1004800030E0A9018181FB019181891709F445C000
:10049000882349F0D801C701821B930BA40BB50B2D
:1004A0009C01AD0104C02E193F09400B510B57FDB3
:1004B00004C01982DB82CA820BC081E08983DB829F
:1004C000CA8250954095309521953F4F4F4F5F4FD1
:1004D0002C833D834E835F830DC0880F991FAA1F15
:1004E000BB1F8C839D83AE83BF838A819B810197D1
:1004F0009B838A838C819D81AE81BF819C01AD01EC
:1005000021503040404050402F3FEFEF3E07EFEF8B
:100510004E07EFE35E0708F30BC08983DB82CA82D4
:100520002E0D3F1D401F511F2C833D834E835F8343
:1005300083E088832C813D814E815F8157FF1DC000
:10054000DA01C90181709070A070B070569547951E
:1005500037952795822B932BA42BB52B8C839D83CA
:10056000AE83BF838A819B8101969B838A8305C06A
:10057000E0E0F2E003C0FB0101C0FE01CF01CDB716
:10058000DEB7EEE00C942C06A0E2B0E0EAECF2E07C
:100590000C94180669837A838B839C832D833E8316
:1005A0004F83588789E0E82EF12CEC0EFD1ECE011A
:1005B0000196B7010E944A058E010F5E1F4FCE01C2
:1005C0000596B8010E944A05C701B801AE01475E11
:1005D0005F4F0E947A010E947C04A096E6E00C9492
:1005E0003406A0E2B0E0E7EFF2E00C94180669836D
:1005F0007A838B839C832D833E834F8358878E0120
:10060000075F1F4FCE010196B8010E944A0591E194
:10061000E92EF12CEC0EFD1ECE010596B7010E94CD
:100620004A058A8991E089278A8BC801B701AE0102
:10063000475E5F4F0E947A010E947C04A096E6E02C
:100640000C943406A0E2B0E0E8E2F3E00C940C066F
:1006500069837A838B839C832D833E834F83588762
:10066000CE010196BE01675F7F4F0E944A05CE0111
:100670000596BE016F5E7F4F0E944A0599859230B4
:1006800078F089898230C0F0943019F4823041F4D6
:10069000CBC0843019F4923079F4C6C0923051F452
:1006A00081E02A859A89291709F480E08A87CE019A
:1006B0000996BCC0823051F481E02A859A892917B5
:1006C00009F480E08A8BCE014196B0C06D847E84AF
:1006D0008F849888ED88FE880F89188DE0E2F0E01D
:1006E00080E090E0DC01AA24BB24650120E030E03A
:1006F000A901B3016170707061157105D1F02E0D03
:100700003F1D401F511F15012601280E391E4A1E8C
:100710005B1E81E090E0A0E0B0E02E153F054007B1
:10072000510718F080E090E0DC01820D931DA41DBC
:10073000B51DAA0CBB1CCC1CDD1C17FF09C061E059
:10074000262E312C412C512CA228B328C428D52880
:10075000319749F0EE0CFF1C001F111F96948794EF
:1007600077946794C6CF6B897C89EB85FC856E0F87
:100770007F1F6E5F7F4F7C8F6B8F61E0EA857A8988
:10078000E71709F460E06A8F6B8D7C8D10C0FC0167
:10079000E170F070309729F0569547953795279579
:1007A0005068B695A795979587956F5F7F4FB7FD72
:1007B000EECF0CC0880F991FAA1FBB1F57FD816089
:1007C000220F331F441F551F615070408030E0E0FE
:1007D0009E07E0E0AE07E0E4BE0760F36B8F7C8F1E
:1007E0006FE7E62EF12C012D112DE822F9220A23C4
:1007F0001B2360E4E616F1040105110561F487FD91
:100800000AC0211531054105510529F0805C9F4F33
:10081000AF4FBF4F80788D8F9E8FAF8FB8A383E08F
:10082000898FCE01499602C080E092E00E947C044C
:10083000A096E2E10C942806A8E1B0E0E2E2F4E040
:100840000C94180669837A838B839C832D833E8363
:100850004F8358878E01075F1F4FCE010196B80165
:100860000E944A0581E1E82EF12CEC0EFD1ECE011E
:100870000596B7010E944A058985823040F0898932
:10088000823028F0C801B7010E94B30501C08FEF84
:100890006896E6E00C943406A8E1B0E0E2E5F4E006
:1008A0000C94180669837A838B839C832D833E8303
:1008B0004F8358878E01075F1F4FCE010196B80105
:1008C0000E944A0581E1E82EF12CEC0EFD1ECE01BE
:1008D0000596B7010E944A058985823040F08989D2
:1008E000823028F0C801B7010E94B30501C081E041
:1008F0006896E6E00C943406EF92FF920F931F93F4
:10090000CF93DF93FC01248135814681578161813A
:100910008081823020F44061EFEFF0E0A3C08430AA
:1009200009F49BC0823009F492C0211531054105BC
:10093000510509F48FC00280F381E02D8FEFE2387A
:10094000F8070CF05AC0C2E8DFEFCE1BDF0BCA314C
:10095000D1056CF579018A010C2E04C01695079516
:10096000F794E7940A94D2F781E090E0A0E0B0E039
:100970000C2E04C0880F991FAA1FBB1F0A94D2F720
:100980000197A109B10982239323A423B52321E070
:1009900030E040E050E00097A105B10519F420E0F7
:1009A00030E0A9012E293F29402B512B03C020E024
:1009B00030E0A901DA01C9018F779070A070B070A2
:1009C00080349105A105B10539F427FF09C0205CE9
:1009D0003F4F4F4F5F4F04C0215C3F4F4F4F5F4F22
:1009E000E1E0F0E0203080E0380780E0480780E474
:1009F000580728F5E0E0F0E022C0E038F1056CF59A
:100A0000E158FF4FDA01C9018F779070A070B07084
:100A100080349105A105B10539F427FF09C0205C98
:100A20003F4F4F4F5F4F04C0215C3F4F4F4F5F4FD1
:100A300057FF05C05695479537952795319687E01E
:100A400056954795379527958A95D1F70BC0E0E0E5
:100A5000F0E005C0E0E0F0E005C0EFEFF0E020E0FE
:100A600030E0A9018E2F879588278795942F9F774F
:100A7000679566276795E695E22EA92FA82BFE2F8E
:100A8000F62B622F732F8A2F9F2FCDB7DEB7E6E0AC
:100A90000C943406DC01FB012C9111963C911197CA
:100AA00012968C911297482F4F7750E0982F991FEC
:100AB0009927991F13966C911397862F880F892B6E
:100AC00090E0661F6627661F6183009739F5211540
:100AD00031054105510511F482E029C082E89FEFFC
:100AE0009383828367E0220F331F441F551F6A954B
:100AF000D1F783E0808309C0220F331F441F551FA5
:100B000082819381019793838283203080E038072C
:100B100080E0480780E4580778F320C08F3F9105B4
:100B200079F4211531054105510519F484E08083DC
:100B3000089544FF03C081E0808310C010820EC07E
:100B40008F5790409383828383E0808387E0220FD6
:100B5000331F441F551F8A95D1F750642483358372
:100B6000468357830895FC01DB019081923008F49D
:100B700049C08C91823008F445C0943051F46181B1
:100B80008430B1F511962C91119730E0261B310974
:100B900041C0843021F0923041F48230B1F111969D
:100BA0008C9111978823A1F12DC06181823001F1D0
:100BB00011968C9111976817D9F42281338112967E
:100BC0008D919C9113978217930794F028173907FA
:100BD000BCF0248135814681578114968D919D9179
:100BE0000D90BC91A02D82179307A407B50718F4A8
:100BF000662341F00DC0281739074A075B0728F420
:100C0000662331F021E030E005C020E030E002C092
:100C10002FEF3FEFC90108952F923F924F925F92BD
:100C20006F927F928F929F92AF92BF92CF92DF92FC
:100C3000EF92FF920F931F93CF93DF93CDB7DEB761
:100C4000CA1BDB0B0FB6F894DEBF0FBECDBF1994E5
:100C50002A88398848885F846E847D848C849B844C
:100C6000AA84B984C884DF80EE80FD800C811B815A
:100C7000AA81B981CE0FD11D0FB6F894DEBF0FBE89
:100C8000CDBFED0108959F9305D00F9007FCEE5F57
:100C900028C0CEC03FD0E8F3E894E0E0BB279F57E0
:100CA000F0F02AED3FE049EC06C0EE0FBB0F661FE7
:100CB000771F881F28F0B23A62077307840728F06D
:100CC000B25A620B730B840BE3959A9572F78038D6
:100CD00030F49A95BB0F661F771F881FD2F7904894
:100CE0009BC0EF93E0FF06C0A2EA2AED3FE049EC8B
:100CF0005FEB37D0BFD00F90039401FC9058E4EE27
:100D0000F0E099C057FD9058440F551F59F05F3FD0
:100D100071F04795880F97FB991F61F09F3F79F01D
:100D200087950895121613061406551FF2CF46959F
:100D3000F1DF08C0161617061806991FF1CF869521
:100D4000710561050894089587D030F08CD020F0AB
:100D500031F49F3F11F41EF46BC00EF4E095E7FBF5
:100D600053C0E92FCFDF80F3BA17620773078407F8
:100D7000950718F071F49EF58EC00EF4E0950B2ED9
:100D8000BA2FA02D0B01B90190010C01CA01A001DD
:100D90001124FF27591B99F0593F50F4503E68F138
:100DA0001A16F040A22F232F342F4427585FF3CF79
:100DB000469537952795A795F0405395C9F77EF44A
:100DC0001F16BA0B620B730B840BBAF09150A1F093
:100DD000FF0FBB1F661F771F881FC2F70EC0BA0F19
:100DE000621F731F841F48F4879577956795B795A1
:100DF000F7959E3F08F0B3CF9395880F08F0992799
:100E0000EE0F97958795089597F99F6780E870E0B2
:100E100060E008959F3F31F0915020F487957795D9
:100E20006795B795880F911D9695879597F90895C1
:100E30009FEF80EC08959F938F937F936F93FF9321
:100E4000EF939B01AC01FEDBEF91FF912BD02F9133
:100E50003F914F915F91F6CB00240A941616170626
:100E600018060906089500240A941216130614069B
:100E700005060895092E0394000C11F4882352F0FE
:100E8000BB0F40F4BF2B11F460FF04C06F5F7F4FB6
:100E90008F4F9F4F0895E894BB2766277727CB0194
:100EA00097F90895DF93CF931F930F93FF92EF92DB
:100EB000DF927B018C01689405C0DA2EEF0121D00E
:100EC000FE01E894A5912591359145915591AEF398
:100ED000EF0147DFFE019701A801DA9479F7DF906F
:100EE000EF90FF900F911F91CF91DF910895B4DFA4
:100EF00028F0B9DF18F0952309F086CF99CF112497
:100F0000CBCF00DFA0F3959FD1F3950F50E0551F95
:100F1000629FF001729FBB27F00DB11D639FAA274E
:100F2000F00DB11DAA1F649F6627B00DA11D661F9D
:100F3000829F2227B00DA11D621F739FB00DA11DBE
:100F4000621F839FA00D611D221F749F3327A00D78
:100F5000611D231F849F600D211D822F762F6A2F14
:100F600011249F5750408AF0E1F088234AF0EE0F99
:100F7000FF1FBB1F661F771F881F91505040A9F7A6
:100F80009E3F510570F040CF87CF5F3FECF3983E16
:100F9000DCF3869577956795B795F795E7959F5F0D
:100FA000C1F7FE2B880F911D9695879597F90895A7
:040FB000F894FFCFE3
:080FB400000000000000000035
:00000001FF
